:030000000289F87A
:0389F80075840182
:0489FB007EF806FFFD
:0389FF0002728B76
:078A7A0055AAFF00030705E8
:1084F2006D228027900049E04408F0745A9000C031
:10850200F06D1100900049E04408F0745A9000C0E8
:0F851200F00B14BE1402A878EA0B24BD2340D549
:018521002237
:106D53007E140021126AAF7F711B7E7E14FFFF7FBA
:106D630017126AB87D237D1F7E04FFFF8D107D30CF
:106D7300900049E04480F0E490008AF0900080F0B5
:106D8300900081F0900080E0F0900081E0F0E490CA
:106D93000089F0026DC31B2474FF900086F09000FD
:106DA30087F090008AE04401F0026DBC900049E056
:106DB3004408F0745A9000C0F0900089E030E1EC90
:106DC3004D2278D2E490008AF07CB7900086F00AD6
:106DD30056900087F0E4900089F090008AE0440127
:106DE300F0026DF4900049E04408F0745A9000C03A
:0D6DF300F0900089E030E1ECE490008AF0BF
:016E0000226F
:108842006D22800F900049E04408F0745A9000C0F5
:07885200F00B24BD2340EDF3
:0188590022FC
:10728B001281E37E34000A1284F21289221277945F
:10729B0012714B1270A6900000E01289BD7403901E
:1072AB000143F0900118E054EFF0900120E04410FE
:1072BB00F0900138E054EFF07403900144F090012A
:1072CB0014E054F7F090011CE04408F0900134E016
:1072DB004408F0900044E01289BD90036BE01289E2
:1072EB00BD90004EE01289BD900004E01289BD7480
:1072FB00077E148A7A7E0400FF1287F77E34000122
:10730B001284F2900049E04408F0745A9000C0F0E7
:0C731B007EB304C0B401EC127E0180E7D8
:0300030002466F43
:10466F00CA7BCA6BCA5BCA4BCA2BC0D175D108C0F3
:10467F00D0C083C0825388FD1281E31277941271E8
:10468F004B1270A6900368E020E1030246AB900343
:10469F0068E01289BD900368E054FDF0900368E074
:1046AF0020E0030246C3900368E01289BD900368BF
:1046BF00E054FEF0900089E020E2030246DE900015
:1046CF0088E020E2030246DE900089E054FBF09080
:1046DF000089E020E103024703900088E020E10316
:1046EF000247037E3700EC0B347A3700EC900089D9
:1046FF00E054FDF0900089E020E00302472890008D
:10470F0088E020E0030247287E3700EC0B347A372D
:10471F0000EC900089E054FEF09000A4E0700302DA
:10472F00481F9000A3E0700302481F9000A4E020F0
:10473F00E4030247629000A3E020E4030247629083
:10474F0000A4E01289BD9000A4E054EFF074017A48
:10475F00B300FA9000A4E020E50302477D9000A388
:10476F00E020E50302477D9000A4E054DFF09000C5
:10477F00A4E020E6030247989000A3E020E603029E
:10478F0047989000A4E054BFF09000A4E020E70306
:10479F000247B39000A3E020E7030247B39000A4C1
:1047AF00E0547FF09000A4E020E3030247CE900096
:1047BF00A3E020E3030247CE9000A4E054F7F0906B
:1047CF0000A4E020E2030247E99000A3E020E20307
:1047DF000247E99000A4E054FBF09000A4E020E130
:1047EF00030248049000A3E020E103024804900074
:1047FF00A4E054FDF09000A4E020E00302481F90D5
:10480F0000A3E020E00302481F9000A4E054FEF054
:10481F009000A2E0541F78030248BC9000A1E0541E
:10482F001F78030248BC9000A2E020E40302485026
:10483F009000A1E020E4030248509000A2E054EF62
:10484F00F09000A2E020E30302486B9000A1E0206B
:10485F00E30302486B9000A2E054F7F09000A2E04F
:10486F0020E2030248869000A1E020E2030248867E
:10487F009000A2E054FBF09000A2E020E103024878
:10488F00A19000A1E020E1030248A19000A2E05412
:10489F00FDF09000A2E020E0030248BC9000A1E0F0
:1048AF0020E0030248BC9000A2E054FEF0D082D07A
:1048BF0083D0D0D0D1DA2BDA4BDA5BDA6BDA7B32FA
:03000B000286006A
:10860000CAB8C0D1C28DC28C758CF2758AFAD28C70
:108610007EB304CD600D147AB304CD700674017A74
:08862000B304C7D0D1DAB8326F
:030013000266D7AB
:1066D700CA7BCA6BCA5BCA4BCA2BC0D175D108C06B
:1066E700D0C083C0825388F7900141E020E70302BE
:1066F700671B1281E312779412714B1270A69001F7
:1067070041E01289BD900141E0547FF0C2AA7401B3
:106717007AB304C9900142E020E603026747128179
:10672700E312779412714B1270A6900142E012891E
:10673700BD900142E054BFF0C2AA74017AB304C904
:10674700900142E020E10302679B900142E054FD83
:10675700F0E49000A4F09000A3E04410F0E47AB3D2
:1067670000FA026779900049E04408F0745A9000F3
:10677700C0F07EB300FA60EDE49000A3F07E340031
:10678700011284F274551289BD74AA1289BD74016D
:106797007AB304C9900142E020E0030267B2900196
:1067A70042E054FEF074017AB304C95388F7D082EB
:1067B700D083D0D0D0D1DA2BDA4BDA5BDA6BDA7B45
:0167C700329F
:03001B0002862832
:10862800CAB8C0D1C28FC28E758DF2758BFAD28E40
:108638007EB304CE600D147AB304CE700674017A4A
:08864800B304C8D0D1DAB83246
:03002300020007D1
:0100070032C6
:03002B0002821D31
:10821D00CA59C0D175D108C2CF30CE267EA1CB7E32
:10822D007300E17CB7047AB300E10A3719A300EEBD
:10823D007EA1CA7E7300E17CB7047AB300E119A375
:09824D0000EEC2CED0D1DA5932A4
:03003300020006C2
:0100060032C7
:03003B000274F05C
:1074F000CA7BCA6BCA5BCA4BCAF8CA2BC0D175D14A
:0775000008C0D0C083C08267
:10750700900122E04401F0E59130E12890036BE01F
:1075170030E021E490036AF07EF00390036BE030E3
:10752700E6F97E34000A1284F21BF078EE90036BC2
:10753700E054FEF0E59130E022900023E030E00EC9
:1075470074016C776C66127602E4900023F0900069
:0E75570022E0540F6805E4900022F0759100C8
:10756500D082D083D0D0D0D1DA2BDAF8DA4BDA5BFF
:05757500DA6BDA7B3245
:03004300027F89B0
:107F8900CA7BCA6BCA5BCA4BCA2BC0D175D108C0A0
:107F9900D0C083C082C2C09002E2E030E019749977
:107FA9001289BD9002E2E01289BD9002E2E054FE1E
:107FB900F074017AB304CAD082D083D0D0D0D1DA98
:0A7FC9002BDA4BDA5BDA6BDA7B325D
:03004B000287A485
:1087A400CAB8C0D1C083C082E4900373F0C2C1745C
:0E87B400017AB300FBD082D083D0D1DAB83284
:030053000251C691
:1051C600CA7BCA6BCA5BCA4BCA2BC0D175D108C091
:0551D600D0C083C0827F
:1051DB00C2C29002A7E020E1030251F39002A7E0C4
:1051EB0054FDF0749002521C9002A7E020E20302DF
:1051FB0052099002A7E054FBF0749102521C9002EA
:10520B00A7E020E30302521F9002A7E054F7F074CB
:10521B00921289BD9002A1E020E703025361900234
:10522B00AF7EEB707EB304C6B41002800302524C07
:10523B007A71E09002B3F09002A1E030E6F90253EC
:10524B00B27EB304BFBEB00A40030253597EA00323
:10525B00A49052607302527E0252900252A60252E6
:10526B00BC0252DC0252EB0252F8025315025335C8
:10527B00025342A5BF680280030253B274017AB392
:10528B0004BF0253B2A5BF0102800302529E7402F7
:10529B0002529FE47AB304BF0253B2A5BF0002804F
:1052AB00030252B474030252B5E47AB304BF02533F
:1052BB00B2A5BF970280030252D474047AB304BF21
:1052CB006D337A3704B50253B2E47AB304BF025399
:1052DB00B20A377A3704B774057AB304BF0253B2F4
:1052EB007A7304B374067AB304BF0253B27A7304AD
:1052FB00B47E3704B74D33680302530C7408025362
:10530B000E74077AB304BF0253B27E2704B5197229
:10531B0001000B247A2704B5BE2704B76803025398
:10532B00B274087AB304BF0253B27A7304C474091B
:10533B007AB304BF0253B2A5BF16028003025351C6
:10534B0074017AB304C0E47AB304BF0253B2E47AB3
:10535B00B304BF0253B29002A1E020E6030253B2A2
:10536B009002A0E020E6030253B27E3704BBBE37A7
:10537B0004B938030253A07E3704B97D230B247A7A
:10538B002704B909B301009002B3F09002A1E030F9
:10539B00E6F90253B274017AB304C3E47AB304C1DD
:0753AB009002A0E054BFF0E6
:1053B200D082D083D0D0D0D1DA2BDA4BDA5BDA6B61
:0353C200DA7B3261
:03005B000258F355
:1058F300CAB8C0D1C083C082C2C3900285E020E190
:105903000302591E900284E020E10302591E740130
:105913007AB300FD900284E054FDF0900285E030FC
:10592300E00302593F900284E020E00302593F74F0
:10593300017AB300FD900284E054FEF0900285E00A
:10594300547878030259A0900284E020E2030259BC
:10595300A0900285E07AB304CB900285E020E603B1
:1059630002596D900283E054FDF0900285E020E53A
:105973000302597E900283E054FEF0900285E020FA
:10598300E40302598F900285E054EFF0900285E022
:1059930020E3030259A0900285E054F7F0900264DB
:1059A300E020E103025A4674017AB300FD900264D9
:1059B300E020E0030259DD900261E07AB304CB906A
:1059C3000261E020E7030259D1E4900264F09002FF
:1059D30064E054FEF0E4900261F0900267E020E29C
:1059E30003025A01900267E07AB30108900266E06D
:1059F3007AB30109900267E054FBF0025A46900221
:105A030067E020E103025A25900267E07AB30108B8
:105A1300900266E07AB30109900267E054FDF00258
:105A23005A46900267E020E003025A46900267E07C
:105A33007AB30108900266E07AB30109900267E045
:0C5A430054FEF0D082D083D0D1DAB8320B
:030063000282FC1A
:1082FC00CAB8C0D1C083C082900128E06480F090DD
:10830C000066E030E107900066E054FDF0900066F6
:10831C00E030E007900066E054FEF0C2C4D082D09A
:06832C0083D0D1DAB83263
:03006B0002768A90
:10768A00CA7BCA6BCA5BCA4BCA2BC0D175D108C0A8
:10769A00D0C083C082C2C59000E6E030E40D740118
:1076AA007AB304D09000E6E054EFF09000E6E030C0
:1076BA00E70E9000E6E01289BD9000E6E0547FF004
:1076CA009000E6E030E6159000E6E01289BD7E34CF
:1076DA0000011284F29000E6E054BFF09000E6E068
:1076EA0030E50E9000E6E01289BD9000E6E054DF36
:1076FA00F0C2C5D082D083D0D0D0D1DA2BDA4BDA1F
:06770A005BDA6BDA7B3252
:030073000271EC2B
:1071EC00CAB8C0D1C083C082C2C690022FE020E1D1
:1071FC000302720D90022FE054FDF074017AB30477
:10720C00CC900231E020E103027224900231E05470
:10721C00FDF074017AB304CC900233E020E1030258
:10722C00723B900233E054FDF074017AB304CC90BD
:10723C00022FE020E00302725290022FE054FEF085
:10724C0074017AB304CF900231E020E0030272693A
:10725C00900231E054FEF074017AB304CF90023303
:10726C00E020E003027280900233E054FEF07401DF
:0F727C007AB304CFC2C6D082D083D0D1DAB83271
:04007B008AFF8E7BEF
:038E0000758E105C
:038E0300128F9F2C
:038E060030E60350
:038E0900028EE9ED
:038E0C007E01E004
:038E0F007E21E0E1
:038E12005E0007F8
:038E1500128F9821
:038E18007E318F19
:038E1B00128F981B
:038E1E007E318F13
:038E2100128F9815
:038E2400858F84B3
:038E2700128F980F
:038E2A00858F83AE
:038E2D00128F9809
:038E3000858F82A9
:038E3300758E2019
:038E360085828FA3
:038E3900758E1023
:038E3C00028E5251
:028E3F00A51B71
:018E4100A38D
:038E4200758E200A
:038E450085828F94
:038E4800758E1014
:048E4B00A5BB0003C0
:038E4F00028E038D
:038E52007A21F092
:048E5500A5B80003B9
:038E5900028F4045
:048E5C00A5B80103B1
:038E6000028F5826
:038E6300028F6D0E
:038E7B00758E10E1
:038E7E0085F08FED
:038E8100128FA7A6
:038E840085E08FF7
:038E8700128FA7A0
:038E8A0085D08F01
:038E8D00128FA79A
:038E900053D0E7D5
:038E930085828F46
:038E9600128FA791
:038E990085838F3F
:038E9C00128FA78B
:038E9F0085848F38
:038EA200128FA785
:038EA500858EE0D7
:038EA800758E10B4
:038EAB0030E210A2
:028EAE00D0F002
:038EB00085F08FBB
:038EB300128FA774
:028EB600D0F0FA
:038EB80085F08FB3
:038EBB00128FA76C
:028EBE00D0F0F2
:038EC00085F08FAB
:038EC300128FA764
:028EC600D0F0EA
:038EC80085F08FA3
:038ECB00128FA75C
:038ECE0053D0E797
:038ED1007A018F94
:038ED400128FA753
:038ED7007E000119
:038EDA00A5868FDB
:038EDD00128FA74A
:028EE000A508E3
:048EE200A5B820F41B
:038EE600028E00F9
:038EE9007E001FE9
:038EEC00128F984A
:038EEF00A5A68FA6
:028EF200A518C1
:048EF400A5B800F429
:038EF800128F983E
:038EFB007E018F66
:038EFE00858EE07E
:038F0100758E105A
:038F040030E20A4E
:038F0700128F9F27
:028F0A00C0E0C5
:038F0C00128F9F22
:028F0F00C0E0C0
:038F1100128F9F1D
:028F1400C0E0BB
:038F1600128F9F18
:028F1900C0E0B6
:038F1B00128F981A
:038F1E00858F84B8
:038F2100128F9814
:038F2400858F83B3
:038F2700128F980E
:038F2A00858F82AE
:038F2D00128F9808
:038F3000858FD05A
:038F3300128F9802
:038F3600858FE044
:038F3900128F98FC
:038F3C00858FF02E
:018F3F0032FF
:038F400020F30C0F
:038F43007E71B18B
:038F46007A718FAE
:038F4900128FA7DD
:038F4C00028E3F53
:038F4F00128F98E6
:038F5200858FB157
:038F5500028E3F4A
:038F580020F309FA
:018F5B00E035
:028F5C00F58F8F
:038F5E00128FA7C8
:038F6100028E3F3E
:038F6400128F98D1
:028F6700E58F94
:018F6900F017
:038F6A00028E3F35
:038F6D0020F314DA
:028F70007F146C
:038F72007E10046A
:038F7500A5878F3E
:028F7800A50949
:038F7A00128FA7AC
:048F7D00A5B908F496
:038F8100028E3F1E
:038F84007E100458
:038F8700128F98AE
:038F8A00A5A78F09
:028F8D00A50934
:048F8F00A5B908F484
:028F93007F411C
:038F9500028E0346
:038F9800858EF0D3
:038F9B0030F0FAB9
:018F9E0022B0
:028F9F00E58E5D
:038FA10030E0FBC2
:028FA400E58F57
:018FA60022A8
:038FA700858EF0C4
:038FAA0030F1FAA9
:018FAD0022A1
:027327007C2BBD
:10732900900047E04408F0E46CAA0A0B2E040220FE
:107339007A11827A01837AEBA004B415ED900220C8
:10734900E04404F0900220E054FDF0A5BA00329028
:107359000220E0F0900221E0F0900221E04CB3F02D
:107369007D521B54900222F00A56900223F07D535D
:107379005E5400FF900224F0D2EE7403900230F0C4
:1073890022A5BA0133900220E04401F0900225E0E1
:10739900F0900225E04CB3F07D521B54900226F088
:1073A9000A56900227F07D535E5400FF900228F0A0
:0873B900D2EE7403900232F0E1
:0173C10022A9
:10896D0070059002218006B40107900225E0442095
:02897D00F022E6
:10895B0070059002218006B40107900225E054DFD8
:02896B00F022F8
:107EA4007C9BE47AB304CF7AB304CC7CB9127327F5
:107EB4007CB912896D800D900049E04408F0745A31
:107EC4009000C0F07EB304CC60EDE47AB304CC80BF
:107ED4000D900049E04408F0745A9000C0F07EB35D
:0E7EE40004CF60EDE47AB304CF7CB902895B71
:107CF900900047E04408F0E46CAA0A0B2E04022025
:107D09007A11827A01837AEBA004BEB01540EB9018
:107D19000220E04404F0E4900229F07D511B5490C4
:107D2900022AF00A5690022BF07D535E5400FF9010
:107D3900022CF00A5490022DF07D525E5400FF90FF
:0B7D4900022EF0D2EE7403900234F022
:017D5400220C
:1083FD00E47AB304CF7AB304CC127CF9900220E076
:10840D004402F07EB304CC60FAE47AB304CC7EB3BC
:10841D0004CF60FAE47AB304CF900220E054FDF06B
:01842D00222C
:107FD3006D337E2400FFE47AB304D09000E6F0D240
:107FE300AFD2ED74C09000E4F074819000E0F0E44F
:107FF3009000E1F074969000E3F0747D9000E3F05C
:1080030074C97A1BB0000000000000000000007E6D
:07801300B304D060FAD2AF04
:01801A002243
:1080EE00E47AB304D09000E6F0D2AFD2ED74C09033
:1080FE0000E4F074019000E0F0E49000E1F074967A
:10810E009000E3F0747D9000E3F074C97A1BB00028
:10811E000000000000000000007EB304D060FAD220
:01812E00AFA1
:01812F00222D
:02828E007CABC7
:10829000E47AB304D09000E6F0D2AFD2ED74C0908F
:1082A00000E4F0E49000E0F074019000E1F074A5C7
:1082B0009000E3F074F19000E3F07A1BA00000005E
:0482C0000000D2AF39
:0182C4002297
:107DAF007E780E00E47AB304D09000E6F0D2AFD222
:107DBF00ED74C09000E4F0E49000E0F074019000E6
:107DCF00E1F07E5402007E0B907A7B900B140BF443
:107DDF001B5478F274A59000E3F074C49000E3F0A4
:107DEF00E47A1BB000000000007EB304D060FAD22A
:017DFF00AFD4
:017E0000225F
:058A16007E1BB0000012
:018A1B002238
:0481A9007C3B7F712B
:1081AD006D447D346D222F177CB312828E0B44BE2D
:1081BD0044020078ED6D447D346D222F17128A161E
:1081CD007C2BBC3268037D34220B44BE440200403C
:0581DD00E67E3455AA06
:0181E200227A
:088A22005345544E20320D0AA9
:0A8A2A0053455450200000000000E6
:0F8A340053595354656D3A52454D6F74650D0A91
:088A43005345544E20300D0A8A
:0A8A4B0052414D5020302E300D0A2C
:088A55005345544E20310D0A77
:088A5D00524D504320300D0A78
:108A65004D4541537572653A564F4C546167653AA9
:058A750044433F0D0A1F
:0A88E5003A4D4541537572653F0A94
:0B88EF00535953543A4B455920390AA5
:10858000900049E04414F0E4900117F090011FF0CE
:10859000900117E04440F090011FE04440F0E49067
:0B85A0000374F0900374E04428F02204
:10865000900049E04440F0E490036EF090036EE037
:1086600054FDF0743F90036FF074FF900370F0902E
:07867000036EE04401F0225B
:107B6200900049E04410F0E4900100F0900101F02F
:107B7200900102F0900103F0900104F0900105F0F1
:107B8200900106F0900107F090011AF090011BF0AD
:107B920090011CF090011DF090011EF090011FF069
:107BA200900120F0900121F074FF900112F09001F9
:107BB20013F0900114F0900115F0900116F090016D
:0B7BC20017F0900118F0900119F0225C
:10825600900049E04410F0E49002A4F09002A8F0E7
:108266009002A5F09002A9F09002A6F09002AAF062
:108276009002A7F09002ABF0900374F090036EF0BA
:08828600900043E054FBF022DC
:0A8A0200E4900047F0900048F022D5
:024D7300CA3B39
:104D75007E348A2A7E2400FF7E140205740A126B93
:104D85000B7EB304B41BB17803024E1B1BB1780331
:104D9500024E861BB17803024EFC24B17803024E05
:104DA5006724897803024E7624CB6803024FA97ED7
:104DB5007301010A376D227C057C167C276C337ED6
:104DC5007301007D237D317E3301020A734D737DAE
:104DD500627E7301037A7302007A3F02017E330219
:104DE500007E1F02017A1B3074057AB301047C7DB5
:104DF5007A7301077C7E7A7301087C7F7A730109D7
:104E05007E7302007A73010A7E1F02017E1B707A8F
:104E150073010B024FA97E7301010A376D227C05D0
:104E25007C167C276C337E7301007D237D317E33B8
:104E350001020A734D737D627A3F020174047AB3ED
:104E450001047C7D7A7301077C7E7A7301087C7F7F
:104E55007A7301097E1F02017E1B707A73010A02B3
:104E65004FA974017AB3010474AA7AB30107024FFA
:104E7500A974AA1289BD745C90004CF00000024F21
:104E8500A9E47AB304C990013CF090013CE0F090AC
:104E9500013FE044FFF0E4900103F090010BF09036
:104EA5000115F090011DF090010BE04402F0E49033
:104EB5000142F075B70075B800C28AD2AA90013FC9
:104EC500E054F7F075B70075B80043B701D2B8C222
:104ED50088D2A8800D900049E04408F0745A9000EB
:104EE500C0F07EB304C960EDE47AB3010490013FDC
:104EF500E044FFF0024FA9E47AB304C9900139F008
:104F0500900139E04404F074FF90013EF0E4900113
:104F150001F0900109F0900113E0547FF090011B1E
:104F2500E0547FF0E4900141F090012BE07AB30268
:104F35000075B70075B80043B704D2BA7EB3010057
:104F4500B40106D28AD2AA80067004C28AD2AA7E89
:104F5500A30101BEA001780990013EE0547FF080D5
:104F650029BEA002780990013EE0543FF0801BBEA7
:104F7500A003781690013EE054BFF0800D900049E3
:104F8500E04408F0745A9000C0F07EB304C960EDA7
:104F950074017AB301047E7302007A73010774FF0A
:044FA50090013EF049
:034FA900DA3B22CE
:02094500CA3BAB
:100947001283997EB304B414BEB0304003020F4142
:100957007EA003A490095F730209EF0209F1020C5C
:1009670080020BB8020BF9020F41020F41020F413F
:10097700020F41020F41020F41020F41020F4102D4
:100987000F41020F41020ACB020AFD020B49020F77
:1009970041020B77020F41020F41020DEC020E4894
:1009A700020CD4020F41020F41020F41020F410214
:1009B7000F41020F41020C4D020E7E020ED9020FAB
:1009C7000E020A96020D1A020F41020F41020F4151
:1009D700020F41020F41020F41020F41020F410274
:1009E7000F41020F41020A33805C7EB3010090027F
:1009F70060F07EB30101900261F07EB301029002C4
:100A070062F07EB30103900263F07EB301049002AB
:100A170064F07EB30105900265F07EB30106900293
:100A270066F07EB30107900267F0801A6CFF7EB311
:100A370001000A3F2E3401207A71827A6183F00B1C
:100A4700F0BEF00878E874087AB30104900260E019
:100A57007AB30107900261E07AB30108900262E07D
:100A67007AB30109900263E07AB3010A900264E065
:100A77007AB3010B900265E07AB3010C900266E04D
:100A87007AB3010D900267E07AB3010E020F417E3F
:100A97007301000A277E34004B126A7D1B34BE3473
:100AA70000FF28067480900265F07CB7900262F020
:100AB70074027AB30104900262E07AB301079002EC
:100AC70065020C787EC30100BEC05578081287DD29
:100AD70012885A801BBEC0AA6803020D0D1287DD5B
:100AE700900260E04401F0900261E05408B408F716
:100AF7007EE022020D0D7EC30100BEC055780812AC
:100B070087DD1288728035BEC0AA78151287DD90FE
:100B17000260E04404F0900261E05410B410F780E2
:100B27001B7EB30100B488171287DD6CFF800512A6
:100B370088720BF07E730101BC7F38F37EE02202DE
:100B47000D0D7EC30100BEC05578051287DD8017E5
:100B5700BEC0AA6803020D0D1287DD12885A7455AC
:100B6700900263F012899112888A7EE022020D0DAD
:100B77007ED301007E7301010A377A3702027D2393
:100B87007C456C557E7301022D327A37020274A0C0
:100B97007E3702027E0801030A2D127001E4337CBE
:100BA700EB74027AB301047AE30107900267020C3F
:100BB700787ED301007E7301010A377A3702027DFE
:100BC700237C456C557E7301022D327A37020274FD
:100BD700A07E3702027E2401030A1D125DEBE43377
:100BE7007CEB74027AB301047AE30107900267028F
:100BF7000C787ED301007E7301010A377A3702022F
:100C07007D237C456C557E7301022D327A370202B3
:100C170074A07E3702027E2402680A1D125B8DE4EF
:100C2700337CEB0A3D0B347A7301047AE301076CDA
:100C3700FF800C0A2F09720268197201080BF0BCB9
:100C4700DF38F0020F417EC30100BEC0557809129C
:100C57005EF1E4337CEB800CBEC0AA78071269A46E
:100C6700E4337CEB74037AB301047AE3010790025F
:100C770067E07AB30108020F417EC30100BEC001DD
:100C8700780912745DE4337CEB801CBEC0027809DE
:100C9700127C99E4337CEB800E7EB30100B403072A
:100CA70012801BE4337CEBE4900267F0900264F05F
:100CB700900267F0900260F0900261F0900266F097
:100CC70074037AB301047AE30107020F417ED3016B
:100CD700007E7301010A377A3702027D237C456C57
:100CE700557E7301022D327A3702027E3400077A6D
:100CF7003702CC74557E3702027E0801030A2D1293
:100D07006B41E4337CEB74017AB301047AE30107A6
:100D1700020F411287DD7E7301007A7302016CCCEA
:100D2700020DC96CFF900049E04408F0745A900026
:100D3700C0F0E47AB302007E7302000A371289B06A
:100D47001287847CA77EB302000A4B19A40204040D
:100D57007AB30200B440E07E3400077A3702CC74DD
:100D6700A07E7040AC7F7E0802047E240040126B98
:100D7700417E3400077A3702CC74A07E7040AC7F86
:100D87007E0802687E2400401264EBE47AB3020016
:100D97007EA302000A2A0972020409B20268BCB7DC
:100DA70068046CEE802A7CBA047AB302007E730270
:100DB70000BE704040DA0BF0BEF0645003020D2C09
:100DC7000BC07E730201BC7C2803020D2A7EE00162
:100DD70074027AB301047AE301077E7302017A731E
:100DE7000108020F417ED301007E7301010A377AA1
:100DF7003702027D237C456C557E7301022D327AC2
:100E07003702027E3400077A3702CC74A07E37029D
:100E1700027E0802680A2D1264EBE4337CEB0A3D7C
:100E27000B347A7301047AE301076CFF800C0A2FF5
:100E370009720268197201080BF0BCDF38F0020F63
:100E4700417ED3010074A17E0802680A3D12791A17
:100E5700E4337CEB0A3D0B347A7301047AE3010730
:100E67006CFF800C0A2F09720268197201080BF0D7
:100E7700BCDF38F0020F417ED301007E7301010A07
:100E8700377A3702027D237C456C557E7301022D2C
:100E9700327A3702027E3400077A3702CC74A07E9A
:100EA7003702027E0802680A2D120F44E4337CEBF6
:100EB7000A3D0B347A7301047AE301076CFF800C57
:100EC7000A2F09720268197201080BF0BCDF38F0AB
:100ED7008068E4900260F06CFF8014900260E05438
:100EE700BFF00000900260E04440F000000BF07E8D
:100EF700730100BC7F38E474017AB3010490026087
:100F0700E07AB301078033E4900260F06CFF80144D
:100F1700900260E054DFF00000900260E04420F0AF
:100F270000000BF07E730100BC7F38E474017AB3D4
:0A0F37000104900260E07AB30107A4
:030F4100DA3B2276
:02299F00CA3B31
:1029A1001283CB7EB304B414BEB0304003022E5365
:1029B1007EA003A49029B973022A49022A6E022E2D
:1029C10053022AEC022B1B022B58022B7C022C14E3
:1029D100022D81022B4A022BB3022BDA022CC902EF
:1029E1002E2B022E3F022E53022E53022E53022E65
:1029F10053022E53022E53022E53022E53022E53F4
:102A0100022E53022E53022E53022E53022E530234
:102A11002E53022E53022E53022E53022E53022EF8
:102A210053022E53022E53022E53022E53022E53C3
:102A3100022E53022E53022E53022E53022E530204
:102A41002E53022E53022AAD74087AB301046CFF8F
:102A51000A3F7D232E2402807A51827A4183E01934
:102A6100B301070BF0BEF00878E6022E536CFF0AA3
:102A71003F09B301002E3402807A71827A6183F0BA
:102A81000BF0BEF00878E874087AB301046CFF0A11
:102A91003F7D232E2402807A51827A4183E019B34B
:102AA10001070BF0BEF00878E6022E536CFF7EB3EF
:102AB10001000A3F2E3402807A71827A6183F00B21
:102AC100F0BEF00878E874087AB301046CFF0A3F9D
:102AD1007D232E2402807A51827A4183E019B30149
:102AE100070BF0BEF00878E6022E53127E53E47A0B
:102AF100B300FD7EB30100B45507D2EB1286E0802E
:102B0100117EB30100B4AA0AC2EBE4900284F01270
:102B1100890EE47AB30104022E53127E53E47AB390
:102B210000FD7EB30100B45507D2EB1286BE8011C1
:102B31007EB30100B4AA0AC2EBE4900284F01288C9
:102B4100FAE47AB30104022E53127E531288A2E4EE
:102B51007AB30104022E537EC30100127E537EB369
:102B610001017E7301027E6301037E0801040A2CC8
:102B710012789AE47AB30104022E537EC301001243
:102B81007E537EB301017E7301027E6301037E08E1
:102B910002C90A2C126E017AC301046CFF800C0A6F
:102BA1002F097202C9197201070BF0BCCF38F0026C
:102BB1002E537EC30100127E53127F3E7EB301016C
:102BC1007E7301027E6301037E2401040A1C1273D9
:102BD100C2E47AB30104022E537EC30100127E5374
:102BE100127F3E7EB301017E7301027E6301037E8B
:102BF1002402C90A1C1285527AC301046CFF800C9D
:102C01000A2F097202C9197201070BF0BCCF38F003
:102C1100022E537ED0FF127E536CFF022CB112881C
:102C2100A27E3413881284F27E3413881284F26CEB
:102C3100EE1287840A2E197202010BE0BEE0C878F9
:102C4100F0E46C776C667E0802017E2400C812787D
:102C51009A7E34000A1284F2E46C776C667E080274
:102C6100C97E2400C8126E016CEE900049E0440850
:102C7100F0745A9000C0F00A2E0962020109720232
:102C8100C9BC76681B6CDD7CBE1289BD0A3E09B3E6
:102C910002C91289BD0A3E09B302011289BD800A27
:102CA1007ED0FF0BE0BEE0C840C04CDD680D0BF0EC
:102CB1007E730100BC7F2803022C1F74017AB301CB
:102CC100047AD30107022E537ED0FF127E53127F66
:102CD1003E6CFF022D691285D67E3413881284F270
:102CE1007E3413881284F26CEE1287840A2E1972D4
:102CF10002010BE0BEE00A78F0E46C776C667E249A
:102D010002017E14000A1273C27E34000A1284F298
:102D1100E46C776C667E2402C97E14000A12855227
:102D21006CEE900049E04408F0745A9000C0F00A3B
:102D31002E09620201097202C9BC76681B6CDD7C36
:102D4100BE1289BD0A3E09B302C91289BD0A3E09F4
:102D5100B302011289BD800A7ED0FF0BE0BEE00AFA
:102D610040C04CDD680D0BF07E730100BC7F280371
:102D7100022CD774017AB301047AD30107022E53CE
:102D8100900280E0541F7AB302007EB30100BEB00E
:102D9100084003022E137EA003A4902D9F73022DE1
:102DA100B7022DC1022DCD022DD9022DE5022DF143
:102DB100022DFD022E097E7302007A7302008052F9
:102DC1007EB3020024207AB3020080467EB3020063
:102DD10024407AB30200803A7EB3020024607AB3C1
:102DE1000200802E7EB3020024807AB3020080228A
:102DF1007EB3020024A07AB3020080167EB30200E3
:102E010024C07AB30200800A7EB3020024E07AB3C0
:102E110002007EB30200900280F074017AB30104D3
:102E2100900280E07AB301078028127E53128A0C47
:102E31007CDB74017AB301047AD301078014127E1A
:102E410053D2EB1283327CDB74017AB301047AD35F
:022E5100010777
:032E5300DA3B2245
:024B2C00CA3B82
:104B2E009F33E47AB304CA7EB304B41BB16839145C
:104B3E007803024BC0147803024C21147803024C04
:104B4E0041146803024D7074037AB301049002E0BD
:104B5E00E07AB301079002E1E07AB301089002E235
:104B6E00E07AB30109024D707E7301000A377A377D
:104B7E0002007D237C456C557E7301014D327A37E0
:104B8E0002007E7702006D6674047AB301047E3BE8
:104B9E00707A7301077E3702000A367A7301087E37
:104BAE003702007A7301097E7304CA7A73010A020E
:104BBE004D707E7301000A377A3702007D237C45E3
:104BCE006C557E7301014D327A3702007E730102FD
:104BDE000A377E7702006D66800B7E4301037A3BB7
:104BEE00400B740B500A15BD1340EF7E7702006D1B
:104BFE006674037AB301047E3B707A7301077E37C5
:104C0E0002000A367A7301087E3702007A730109B0
:104C1E00024D70125CC47AB3020474027AB30104BA
:104C2E007E7302047A7301077E7304CA7A730108D5
:104C3E00024D70E49002E1F074019002E3F0D2E8CC
:104C4E007E34E0007E2400FF1280EE7E34E2007E91
:104C5E002400FF1280EE7E34E4007E2400FF1280DA
:104C6E00EE7E34E6007E2400FF1280EE7E34E800F5
:104C7E007E2400FF1280EE7E34EA007E2400FF12B6
:104C8E0080EE7E34EC007E2400FF1280EE7E34EE49
:104C9E00007E2400FF1280EE9F336D337A370202BE
:104CAE007E3702026D222E2400FF2E18E0007E3B7E
:104CBE00B012828E0B747E3400011284F27E3702A3
:104CCE00020B347A370202BE34100078D3900128DA
:104CDE00E06480F09002E0E04401F0800D90004925
:104CEE00E04408F0745A9000C0F09002E1E030E029
:104CFE00EC900128E06480F09F336D337A37020226
:104D0E007E3702026D222E2400FF2E18E000128A3A
:104D1E00167A3BB00B747E3702020B347A370202DE
:104D2E00BE34100078DA9002E1E030E104740180C4
:104D3E0001E47AB30204E49002E1F09002E0F07430
:104D4E00027AB301047E7302047A7301077E730440
:104D5E00CA7A730108900049E04408F0745A900032
:024D6E00C0F093
:034D7000DA3B2209
:0232E300CAF827
:1032E500D2A8C2887EB304B41BB1686914780302FE
:1032F500361424F378030233D814780302353224C4
:10330500F1780302347424F0780302339924E078C9
:103315000302359A24F078030235B824F0780302C5
:1033250035D624F07803023647247F680302368BAE
:1033350074157AB301046CFF0A3F7D232E2400A087
:103345007A51827A4183E019B301070BF0BEF0157B
:1033550078E602368B6CFF0A3F09B301002E340074
:10336500A07A71827A6183F00BF0BEF01578E8746B
:10337500157AB301046CFF0A3F7D232E2400A07A41
:1033850051827A4183E019B301070BF0BEF015783D
:10339500E602368B6CFF7EB301000A3F2E3400A097
:1033A5007A71827A6183F00BF0BEF01578E87415B6
:1033B5007AB301046CFF0A3F7D232E2400A07A51C5
:1033C500827A4183E019B301070BF0BEF01578E668
:1033D50002368B74AC9000A0F0E47AB300FAD28880
:1033E500D2A89000A3E04410F07EB300FA60FA7E04
:1033F500B301009000A5F07EB301019000A6F07E18
:10340500B301029000A7F07EB301039000A8F07EFF
:10341500B301049000A9F07EB301059000AAF07EE7
:10342500B301069000ABF074077AB301049000A5D0
:10343500E07AB301079000A6E07AB301089000A7EF
:10344500E07AB301099000A8E07AB3010A9000A9D7
:10345500E07AB3010B9000AAE07AB3010C9000ABBF
:10346500E07AB3010DC2A8E49000A3F002368B6C9C
:10347500777EA0AA9000A5E07AB302009000A6E0AE
:103485007AB302019000A7E07AB302029000A8E0A7
:103495007AB302039000A9E07AB302049000AAE08F
:1034A5007AB302059000ABE07AB302069000A5E07E
:1034B5007AB302079000A6E07AB302089000A7E06D
:1034C5007AB302099000A8E07AB3020A9000A9E055
:1034D5007AB3020B9000AAE07AB3020C9000ABE03D
:1034E5007AB3020D6CFF0A4F09B4020709640200A2
:1034F500BC6B68037EA0550BF0BEF00778E80B7037
:10350500BE70035008BEA055780302347674087A5D
:10351500B301047AA301076CFF0A2F097202071988
:103525007201080BF0BEF00778EF02368BE47AB330
:1035350000FAD2A89000A3E04410F07EB300FA6030
:10354500FA9000A5E07AB302079000A6E07AB302EC
:10355500089000A7E07AB302099000A8E07AB302C8
:103565000A9000A9E07AB3020B9000AAE07AB302B0
:103575000C9000ABE07AB3020D74077AB301046CCA
:10358500FF0A2F09720207197201070BF0BEF00737
:1035950078EF02368B74AC9000A0F07E34000112F7
:1035A50084F274017AB301049000A0E07AB30107B4
:1035B50002368B74CA9000A0F07E3400011284F2AA
:1035C50074017AB301049000A0E07AB301070236D2
:1035D5008B7EB301009000B2F07EA301017CBA1E80
:1035E500B09000B1F07CBA54010A4B3E443E443ED3
:1035F500443E443E443E443E447EB30102547F0A69
:103605005B2D549000B0F0E47AB3010402368B9040
:103615000043E04404F07E3400011284F27401900A
:1036250000B3F07EB301009000B2F07EB3010190CB
:1036350000B1F07EB301029000B0F0E47AB301046A
:1036450080447EB301009000AFF0600DBEB001680C
:1036550008BEB0086803B40E0D900043E04404F0C2
:1036650074019000B3F07405900143F0900117E0E8
:1036750054DFF090011FE04420F0900137E054DF63
:06368500F0E47AB3010439
:03368B00DAF82248
:02007F00CA3B7A
:100081007EB304B414BEB03040030209427EA00323
:10009100A49000967302012602014B0201E00202C4
:1000A100B602082102084402086A02089802091CE3
:1000B1000209420209420208D20203B20204B30257
:1000C10009420209420205D60206E002094202097A
:1000D100420209420209420209420209420209425C
:1000E100020942020942020942020942020942028C
:1000F1000942020942020942020942020942020975
:10010100420209420209420209420209420209422B
:10011100020942020942020942020942020942025B
:10012100094202019174067AB301046CFF0A3F7D12
:10013100232E2400207A51827A4183E019B30107EA
:100141000BF0BEF00578E60201D56CFF0A3F09B35A
:1001510001002E3400207A71827A6183F00BF0BEA7
:10016100F00578E87EB30105900030F074067AB3AB
:1001710001046CFF0A3F7D232E2400207A51827AEC
:100181004183E019B301070BF0BEF00578E6804426
:100191006CFF7EA301000A3F2E3400207A71827A1F
:1001A10061837AEBA00BF0BEF00578E69000307A1F
:1001B100EBA074067AB301046CFF0A3F7D232E2461
:1001C10000207A51827A4183E019B301070BF0BE16
:1001D100F00578E6900030E07AB3010C0209421292
:1001E1008256127B62E4900020F07EB301009003FE
:1001F10066F07EE301017EB30102900045F07CBE12
:100201007E7301033E707E63010412760200007E5C
:10021100B30105900024B40106E04401F08004E03C
:1002210054FEF07EB30106900042B40106E044049E
:10023100F08004E054FBF07EB30107900042B4016A
:1002410006E04402F08004E054FDF07EB301089022
:100251000042B40106E04401F08004E054FEF07E67
:10026100B3010990036CB40106E04401F08004E09D
:1002710054FEF07EB3010A900360B40106E054FE1F
:10028100F08004E04401F07EB3010B900043B4011F
:1002910006E054FEF08004E04401F0128A0290006E
:1002A10020E04440F000900049E04408F0745A9086
:1002B10000C0F080F1127B62900043E04404F074CE
:1002C10002900144F0900114E054F7F090011CE019
:1002D1004408F0900134E04408F01286507E34075F
:1002E100D01284F2E4900020F07EB3010090036606
:1002F100F07EE301017EB30102900045F07CBE7EF9
:100301007301033E707E63010412760200007EB326
:100311000105900024B40106E04401F08004E0549A
:10032100FEF07EB30106900042B40106E04404F001
:100331008004E054FBF07EB30107900042B4010653
:10034100E04402F08004E054FDF07EB30108900027
:1003510042B40106E04401F08004E054FEF07EB3B3
:10036100010990036CB40106E04401F08004E054FB
:10037100FEF07EB3010A900360B40106E054FEF082
:100381008004E04401F07EB3010B900043B4010608
:10039100E054FEF08004E04401F0900020E044408D
:1003A100F0007E3400641284F2E4900020F0020830
:1003B1000C127B6212825690011AE054FEF09001F9
:1003C10000E04401F0900112E04401F0E4900122C8
:1003D100F0900020F07EB30100900366F07EE3010F
:1003E100017EB30103900045F07EC3010274027ADD
:1003F100B300FE7CBC7E70021253C57EB301047E45
:100401007301057E6301067E5301077E4301087E69
:1004110033010D6C226C11126EAE7EB30109900393
:100421006CB40106E04401F08004E054FEF07EB3B8
:10043100010E900360B40106E054FEF08004E04434
:1004410001F07EB3010F3EB03EB04EB301109000FB
:1004510003F07EB30111900042B40106E04404F0C0
:100461008004E054FBF07EB30112900042B4010617
:10047100E04402F08004E054FDF07EB301139000EB
:1004810042B40106E04401F08004E054FEF07CBE79
:100491007E73010B3E707E63010C127602740712AB
:1004A10088B9128A02900020E04480F0438701025B
:1004B100080C128256127B62900043E04404F01251
:1004C1008650E4900020F07EB30100900366F07E38
:1004D100E301017EB30103900045F07EB3010A9070
:1004E1000024B40106E04401F08004E054FEF07CF5
:1004F100BE7E73010B3E707E63010C12760200001A
:10050100900020E04440F0007E3400C81284F27E66
:10051100C3010274027AB300FE7CBC7E70021253E6
:10052100C57EB301047E7301057E6301067E53011E
:10053100077E4301087E33010D6C226C11126EAEF1
:100541007EB3010990036CB40106E04401F080041C
:10055100E054FEF07EB3010E900360B40106E05456
:10056100FEF08004E04401F07EB3010F3EB03EB0E6
:100571004EB30110900003F07EB30111900042B41C
:100581000106E04404F08004E054FBF07EB3011264
:10059100900042B40106E04402F08004E054FDF012
:1005A1007EB30113900042B40106E04401F08004DF
:1005B100E054FEF074071288B9128A0200900020FC
:1005C1007EEBD05ED0BF4ED0809000207AEBD0433E
:1005D100870102080C128256127B62E4900020F01F
:1005E1007EB30100900366F07EE301017EB3010357
:1005F100900045F07EC3010274037AB300FE7CBC17
:100601007E70031253C57EB301047E7301057E63C0
:1006110001067E5301077E4301087E33010F7E23CD
:10062100010B7E13010C126EAE7EB3010990036CB7
:10063100B40106E04401F08004E054FEF07EB30111
:1006410010900360B40106E054FEF08004E0440120
:10065100F07EB301113EB03EB04EB30112900003E3
:10066100F07CBE7E73010D3E707E63010E12760238
:100671007EB30113900042B40106E04404F080040B
:10068100E054FBF07EB30114900042B40106E04453
:1006910002F08004E054FDF07EB30115900042B4F5
:1006A1000106E04401F08004E054FEF07407128872
:1006B100B9128A02900020E044C0F043870200741E
:1006C10004900143F0E4900118F0900120F09001B2
:1006D10020E04410F0900138E054EFF002080D12D0
:1006E1008256127B62900043E04404F0128650E48B
:1006F100900020F07EB30100900366F07EE30101DB
:100701007EB30103900045F07EB3010A900024B44A
:100711000106E04401F08004E054FEF07CBE7E73EB
:10072100010D3E707E63010E1276020000900020E2
:10073100E04440F0007E3400C81284F27EB3010030
:10074100900366F07EC3010274037AB300FE7CBCA1
:100751007E70031253C57EB301047E7301057E636F
:1007610001067E5301077E4301087E33010F7E237C
:10077100010B7E13010C126EAE7EB3010990036C66
:10078100B40106E04401F08004E054FEF07EB301C0
:1007910010900360B40106E054FEF08004E04401CF
:1007A100F07EB301113EB03EB04EB3011290000392
:1007B100F07EB30113900042B40106E04404F080DE
:1007C10004E054FBF07EB30114900042B40106E052
:1007D1004402F08004E054FDF07EB3011590004224
:1007E100B40106E04401F08004E054FEF074071205
:1007F10088B9128A02009000207EEBD05ED0BF4EF5
:10080100D0C09000207AEBD0438702001281E3121E
:10081100714B1270A6128922E47AB30104020942D3
:10082100127B6274016C776C661276021282561228
:100831008A02C2AF900049E04408F0745A9000C0A7
:10084100F080F1127B6274016C776C661276021291
:100851008256128A02C2AF128650900049E04408C3
:10086100F0745A9000C0F080F1127B6274016C77D1
:100871006C66127602128256C2AF128A02127BCDC8
:100881007401126F59127EF2900049E04408F0742D
:100891005A9000C0F080F1127B6274016C776C6633
:1008A100127602128256C2AF900043E04404F07EF9
:1008B100B3010090004AF07EB3010190004BF012A9
:1008C1008A02900049E04408F0745A9000C0F08018
:1008D100F1127B6274016C776C6612760212825699
:1008E100C2AF7E7301000A573E543E543E543E54FB
:1008F1003E543E544E5400027CAB900043E04CBA4F
:10090100F07EB30101900044F0128A02900049E0A8
:100911004408F0745A9000C0F080F1127B627401B7
:100921006C776C66127602128256C2AF1285801203
:100931008A02900049E04408F0745A9000C0F080A7
:01094100F1C4
:03094200DA3B227B
:0268B800CAF81C
:1068BA007EB304B41BB1684314780302698B14785D
:1068CA000302699224D468712464780302698124DA
:1068DA00CB68030269A174057AB301046CFF0A3F0D
:1068EA007D232E2400C07A51827A4183E019B301B4
:1068FA00070BF0BEF00578E60269A16CFF0A3F09B2
:10690A00B301002E3400C07A71827A6183F00BF0F1
:10691A00BEF00578E874057AB301046CFF0A3F7D7E
:10692A00232E2400C07A51827A4183E019B30107E9
:10693A000BF0BEF00578E6805E6CFF7EB301000ABC
:10694A003F2E3400C07A71827A6183F00BF0BEF078
:10695A000578E874057AB301046CFF0A3F7D232E9B
:10696A002400C07A51827A4183E019B301070BF0FF
:10697A00BEF00578E68020745C90004CF000008040
:10698A001674031288B980FE900049E04408F07436
:07699A005A9000C0F080F1EB
:0369A100DAF822FF
:025A4F00CA7912
:105A51007EB304B41BB16843147803025B191BB114
:105A61007803025B2D147803025B4A24D6686B2409
:105A71002F6803025B8A74157AB301046CFF0A3F35
:105A81007D232E2402207A51827A4183E019B301C9
:105A9100070BF0BEF01578E6025B8A6CFF0A3F093E
:105AA100B301002E3402207A71827A6183F00BF007
:105AB100BEF01578E874157AB301046CFF0A3F7DD6
:105AC100232E2402207A51827A4183E019B30107FF
:105AD1000BF0BEF01578E6025B8A6CFF7EB3010025
:105AE1000A3F2E3402207A71827A6183F00BF0BE74
:105AF100F01578E874157AB301046CFF0A3F7D2331
:105B01002E2402207A51827A4183E019B301070BD6
:105B1100F0BEF01578E680717EE301007E3401016C
:105B21007CBE128948E47AB30104805D7EE3010002
:105B31007E3401007CBE1289ED7E3401007CBE12F0
:105B41008948E47AB3010480407E7301000A177D1D
:105B5100017C016C117E7301010A172D107E730106
:105B6100020A377D237C456C557E7301032D327EFD
:105B71005301040A257D027C016C117E5301052D20
:095B8100201283FDE47AB3010453
:035B8A00DA7922A3
:022E5600CA3B75
:102E5800E47AB3026774D67AB3026874877AB302E5
:102E680069E47AB3026A7AB302B774B07AB302B883
:102E780074877AB302B9E47AB302BA7AB3030774EF
:102E8800847AB30308E47AB303097AB3030A7408AB
:102E98007AB3030BE47AB3030C74A47AB3030DE496
:102EA8007AB3030E7AB3030F74027AB30310743F34
:102EB8007AB3031174017AB303121285AB7EB3049B
:102EC800B414BEB03040030232E07EA003A4902EBA
:102ED800DA73022F6A022F6C02301B02317A023138
:102EE800D70232E00232E00232E00232E00232E09F
:102EF8000232E00232E00232E00232E00232E00264
:102F080032E00230600232E00230D102312E02306B
:102F1800980232E00232E00232230232E00232E06A
:102F28000232E00232E00232E00232E00232E00233
:102F380032E00232E00232E00232E00232E00232F3
:102F4800E00232E00232E00232E00232E00232E035
:102F58000232E00232E00232E00232E00232E00203
:102F68002F8880366CFF0A3F09B301002E340240D7
:102F78007A71827A6183F00BF0BEF00E78E8801ADD
:102F88006CFF7EB301000A3F2E3402407A71827AC8
:102F98006183F00BF0BEF00E78E8740E7AB301048A
:102FA800900240E07AB30107900241E07AB3010849
:102FB800900242E07AB30109900243E07AB3010A31
:102FC800900244E07AB3010B900245E07AB3010C19
:102FD800900246E07AB3010D900247E07AB3010E01
:102FE800900248E07AB3010F900249E07AB30110E9
:102FF80090024AE07AB3011190024BE07AB30112D1
:1030080090024CE07AB3011390024DE07AB30114B8
:103018000232E07415900249F090024BE030E1F979
:1030280074A0900249F090024BE030E1F9742290CC
:103038000249F090024BE030E1F97434900249F013
:1030480090024BE030E1F974017AB301049002492F
:10305800E07AB301070232E07E0802037E3400649E
:10306800E412897F12816E7E080203123A257CEBF6
:1030780074227AB301047AE301076CFF0A2F0972FC
:103088000203197201080BF0BEF02178EF0232E05A
:103098007E0802037E340064E412897F7E340203D2
:1030A8007E2403071263F37CEB740B7AB301047A72
:1030B800E301076CFF0A2F09720203197201080B5A
:1030C800F0BEF00A78EF0232E07E0802037E340098
:1030D80064E412897F7E7301007A73026B7A73024B
:1030E800006CFF800C0A2F097201011972026C0B27
:1030F800F07E730200BC7F38EC7E3402037E24022B
:10310800671260F97CEB74037AB301047AE3010770
:103118006CFF0A2F09720203197201080BF0BEF046
:103128000278EF0232E07E0802037E340064E41283
:10313800897F7ED301007AD302BB7E3402037E24CA
:1031480002B71263F37CEB0A3D2E3400037A730155
:10315800047AE301076CFF800C0A2F097202031935
:103168007201080BF00A2D0B250A3FBD3248EA020E
:1031780032E07E0802037E340064E412897F7E73A5
:1031880001007A73026B7A7302006CFF800C0A2FBD
:10319800097201011972026C0BF07E730200BC7F88
:1031A80038EC7E3402037E240267125FF77CEB74EE
:1031B800037AB301047AE301076CFF0A2F0972024C
:1031C80003197201080BF0BEF00278EF0232E07EBC
:1031D8000802037E340064E412897F7ED301007AFA
:1031E800D302BB7E3402037E2402B71262FB7CEB5F
:1031F8000A3D2E3400037A7301047AE301076CFF59
:10320800800C0A2F09720203197201080BF00A2DAB
:103218000B250A3FBD3248EA0232E07E7301007A8C
:103228007302017A7302026CCC0232B87E08020380
:10323800123A257CEBBEE0CC68067EC0010232CA99
:1032480074207AB3026B6CDD800B1287840A2D1907
:1032580072026C0BD07E73026BBC7D38ED7E34023B
:10326800037E2402671260F97CEBBEE0FF68057EEE
:10327800C003804E74207AB302BB7E3402037E24DE
:1032880002B71263F37CEBBEE0FF68057EC00480E2
:10329800316CDD0A2D0962026C09720203BC766882
:1032A800057EC005801C7EC0550BD0BED02040E3F3
:1032B8007EA302017CBA147AB302014CAA68030205
:1032C800323474037AB301047AC301077AE301083C
:0832D8007E7302027A73010902
:0332E000DA3B22B4
:1040C100E47AB302007AB302017AB302027EB30446
:1040D100B41468030243E574807AB30104E5807A7D
:1040E100B30107E5817AB30108E5827AB30109E5F5
:1040F100837AB3010AE5847AB3010BE5857AB301CA
:104101000CE5867AB3010DE5877AB3010EE5887A6D
:10411100B3010FE5897AB30110E58A7AB30111E59C
:104121008B7AB30112E58C7AB30113E58D7AB30171
:1041310014E58E7AB30115E58F7AB30116E5907A0D
:10414100B30117E5917AB30118E5927AB30119E544
:10415100937AB3011AE5947AB3011BE5957AB30119
:104161001CE5967AB3011DE5977AB3011EE5987AAD
:10417100B3011FE5997AB30120E59A7AB30121E5EC
:104181009B7AB30122E59C7AB30123E59D7AB301C1
:1041910024E59E7AB30125E59F7AB30126E5A07A4D
:1041A100B30127E5A17AB30128E5A27AB30129E594
:1041B100A37AB3012AE5A47AB3012BE5A57AB30169
:1041C1002CE5A67AB3012DE5A77AB3012EE5A87AED
:1041D100B3012FE5997AB30130E5AA7AB30131E54C
:1041E100AB7AB30132E5AC7AB30133E5AD7AB30111
:1041F10034E5AE7AB30135E5AF7AB301367EB30467
:10420100AD131313541F54017AB30137E5B17AB3D7
:104211000138E5B27AB30139E5B37AB3013AE5B4CD
:104221007AB3013BE5B57AB3013CE5B67AB3013D1A
:10423100E5B77AB3013EE5B87AB3013FE5B97AB3A0
:104241000140E5BA7AB30141E5BB7AB30142E5BC6D
:104251007AB30143E5BD7AB30144E5BE7AB30145C2
:10426100E5BF7AB30146E5C07AB30147E5C17AB348
:104271000148E5C27AB30149E5C37AB3014AE5C40D
:104281007AB3014BE5C57AB3014CE5C67AB3014D6A
:10429100E5C77AB3014EE5C87AB3014FE5C97AB3F0
:1042A1000150E5CA7AB30151E5CB7AB30152E5CCAD
:1042B1007AB30153E5CD7AB30154E5CE7AB3015512
:1042C100E5CF7AB30156E5D07AB30157E5D17AB398
:1042D1000158E5D27AB30159E5D37AB3015AE5D44D
:1042E1007AB3015BE5D57AB3015CE5D67AB3015DBA
:1042F100E5D77AB3015EE5D87AB3015FE5D97AB340
:104301000160E5DA7AB30161E5DB7AB30162E5DCEC
:104311007AB30163E5DD7AB30164E5DE7AB3016561
:10432100E5DF7AB301667AB30167E5E17AB3016843
:10433100E5E27AB30169E5E37AB3016AE5E47AB3C8
:10434100016BE5E57AB3016CE5E67AB3016DE5E76A
:104351007AB3016EE5E87AB3016FE5E97AB30170EA
:10436100E5EA7AB30171E5EB7AB30172E5EC7AB370
:104371000173E5ED7AB30174E5EE7AB30175E5EF0A
:104381007AB30176E5F07AB30177E5F17AB3017892
:10439100E5F27AB30179E5F37AB3017AE5F47AB318
:1043A100017BE5F57AB3017CE5F67AB3017DE5F7AA
:1043B1007AB3017EE5F87AB3017FE5F97AB301803A
:1043C100E5FA7AB30181E5FB7AB30182E5FC7AB3C0
:1043D1000183E5FD7AB30184E5FE7AB30185E5FF4A
:0443E1007AB3018624
:0143E50022B5
:0224CF00CAF849
:1024D1007E1810007A1F02007EB304B414BEB0301F
:1024E100400302299C7EA003A49024EE7302257E62
:1024F1000225A302262102273B0228360227CC020D
:1025010027FF0226C00228BA02293302299C022988
:102511009C02299C02299C02299C02299C02299C3B
:1025210002299C02299C02299C02299C02299C02C5
:10253100299C02299C02299C02299C02299C02298E
:102541009C02299C02299C02299C02299C02299C0B
:1025510002299C02299C02299C02299C02299C0295
:10256100299C02299C02299C02299C02299C02295E
:102571009C02299C02299C02299C0225E2740F7A63
:10258100B301046CFF0A3F7D232E2400407A51825F
:102591007A4183E019B301070BF0BEF00F78E60230
:1025A100299C6CFF0A3F09B301002E3400407A7167
:1025B100827A6183F00BF0BEF00F78E8740F7AB382
:1025C10001046CFF0A3F7D232E2400407A51827A58
:1025D1004183E019B301070BF0BEF00F78E6022941
:1025E1009C6CFF7EB301000A3F2E3400407A718259
:1025F1007A6183F00BF0BEF00F78E8740F7AB301C3
:10260100046CFF0A3F7D232E2400407A51827A41D7
:1026110083E019B301070BF0BEF00F78E602299CA5
:102621007EA301009001437AEBA07EB301019000EB
:1026310045F07EB30102C4333354C04402900043D9
:10264100F07EB30103900044F07EB3010490004694
:10265100F07EB3010590004AF07EB3010690004B75
:10266100F0BEA0026805BEA0047807900043E044D4
:1026710002F0BEA0067807900043E04404F07EA378
:102681000107BEA0017817900118E054EFF0900106
:1026910020E04410F0900138E054EFF080194CAA8A
:1026A1007815900117E054DFF090011FE04420F00D
:1026B100900137E054DFF0E47AB3010402299C7EF3
:1026C100A301009001447AEBA07EB3010190004583
:1026D100F07EB30102C4333354C04402900043F08E
:1026E1007EB30103900044F07EB30104900046F0F4
:1026F1007EB3010590004AF07EB3010690004BF0D5
:10270100BEA0016805BEA0027807900043E0440422
:10271100F0BEA0037807900043E04402F09001145A
:10272100E054F7F090011CE04408F0900134E044DB
:1027310008F0E47AB3010402299CE490004AF074A1
:10274100F390004BF074066C776C66127602900081
:1027510043E04402F07E3400011284F274039001DC
:1027610044F0900114E054F7F090011CE04408F0AB
:10277100900134E04408F07E3400011284F26CFFD1
:102781009000447AEBF0740B7E1488EF7E0400FF16
:102791001288107E3401F41284F2740A7E1488E5E2
:1027A1007E0400FF128810740C12845F740C7E0882
:1027B100045E1287F77E3400641284F20BF0BEF0DF
:1027C1008178BDE47AB3010402299CE490036AF0A4
:1027D100800D900049E04408F0745A9000C0F090D8
:1027E100036BE030E0EC74017AB3010490036BE019
:1027F10054017AB30107E490036BF002299C900025
:102801004DE04402F074887E1F02007A1BB07E1FE7
:1028110002000B347A1F02000B347A1F02000B34C2
:102821007A1F020074997E1F02007A1BB0E47AB30A
:10283100010402299CE490004AF074F390004BF0EB
:1028410074066C776C66127602900043E04401F0E6
:102851007E3400011284F27401900143F09001185A
:10286100E054EFF0900120E04410F0900138E05482
:10287100EFF07E3400011284F26CFF9000467AEB97
:10288100F07E3401F41284F2740A7E1488E57E0429
:1028910000FF128810740C12845F740C7E08045EB1
:1028A1001287F77E3400641284F20BF0BEF01078C8
:1028B100CAE47AB3010402299C128256127B62E4B3
:1028C100900020F07EB30102900366F07EB3010315
:1028D100900045F074016C776C66127602000090EE
:1028E1000024E04401F07403900042F090036CE096
:1028F10054FEF0900360E04401F07EB30100C43364
:102901003354C04402900043F07EB301019000446F
:10291100F0900043E054FEF0128A02900020E0445F
:1029210040F000900049E04408F0745A9000C0F073
:1029310080F1128256127B62E4900020F07EB30196
:1029410000900366F07EB30101900045F074016CC4
:10295100776C661276020000900024E04401F07466
:1029610003900042F090036CE054FEF0900360E0AD
:102971004401F0900043E054FDF0900043E054FE28
:10298100F0128A02900020E04440F000900049E0FB
:0B2991004408F0745A9000C0F080F180
:03299C00DAF82244
:0E757A00CA69CAF87CA17D417CFB7E0F02022B
:10758800E4900202F0900207F07D630A6C7CBD90E3
:107598000204F07CB7900203F0900202E04CBFF0C6
:1075A800900202E04CB5F0900202E04CB4F00A38C8
:1075B8007CB7900206F07CB9900205F0900202E0D8
:1075C8004CBAF06D3380127E0BB0900200F090023E
:1075D80002E020E3F90B140B347E270200BD2338A8
:1075E800E6900201E00A3B7D237C456C5590020041
:0575F800E00A3B2D320A
:0575FD00DAF8DA692252
:027AF5007CAB68
:107AF700E4900202F0900207F07D430A487CB990B7
:107B07000204F07CB7900203F0900202E04CBAF056
:107B1700900202E04CB5F0900202E04CB4F00A5239
:107B2700900206F07CB3900205F0900202E04CB19F
:107B3700F0900207E04CB0F0900207E04404F090A8
:107B47000202E020E3F9900201E00A3B7D237C4535
:0A7B57006C55900200E00A3B2D324D
:017B61002201
:0248CF00CAF825
:1048D1007EB304B41BB1684814780302499F14786D
:1048E10003024A07147803024A6D147803024AD27C
:1048F10024D6686B242F6803024B2974087AB3010C
:10490100046CFF0ACF7D3C2E3402007A71827A61F9
:1049110083E019BC01070BF0BEF00878E6024B29D1
:104921006CFF0A3F09B301002E3402007A71827ACA
:104931006183F00BF0BEF00878E874087AB30104E3
:104941006CFF0ACF7D3C2E3402007A71827A61833A
:10495100E019BC01070BF0BEF00878E6024B296CA8
:10496100FF7EB301000A3F2E3402007A71827A6120
:1049710083F00BF0BEF00878E874087AB301046C98
:10498100FF0ACF7D3C2E3402007A71827A6183E086
:1049910019BC01070BF0BEF00878E6024B297E73C3
:1049A10001000AE77D3E7C676C777E5301010AE5D1
:1049B1002DE37E7301050AF77D3F7C676C777E539B
:1049C10001060AF52DF37E7301080A377A370200D2
:1049D1007E1801097A1F02027D3E7EB301027E53D9
:1049E10001037E4301047D1F7E13010712757A7D49
:1049F100D374027AB301040A367A7301077D3D7AD2
:104A0100730108024B297E7301000AE77D3E7C6732
:104A11006C777E5301010AE52DE37E7301050AF7E8
:104A21007D3F7C676C777E5301060AF52DF37E345A
:104A310000027A3702007E1801097A1F02027D3EC8
:104A41007EB301027E5301037E4301047D1F7E1369
:104A5100010712757A7DD374027AB301040A367A9A
:104A61007301077D3D7A730108024B297E730100B2
:104A71000AE77D3E7C676C777E5301010AE52DE3F1
:104A81007E7301050AF77D3F7C676C777E530106D3
:104A91000AF52DF37E3400047A3702007E180109ED
:104AA1007A1F02027D3E7EB301027E5301037E43E3
:104AB10001047D1F7E13010712757A7DD374027A7A
:104AC100B301040A367A7301077D3D7A73010880C8
:104AD100577E7301000AE77D3E7C676C777E530148
:104AE100010AE52DE37E7301050AF77D3F7C676CC2
:104AF100777E5301060AF52DF37D3E7EB301027EDA
:104B01005301037E4301047D1F7E1301077E0301D0
:104B110008127AF57DD374027AB301040A367A73E6
:084B210001077D3D7A730108D4
:034B2900DAF82295
:0261FB00CAF8E0
:1061FD007EB304B41BB168361478030262B824D39D
:10620D00686B242F68030262F8740B7AB301046C77
:10621D00FF0A3F7D232E2400807A51827A4183E04C
:10622D0019B301070BF0BEF00B78E60262F86CFFB4
:10623D000A3F09B301002E3400807A71827A61839E
:10624D00F00BF0BEF00B78E8740B7AB301046CFF21
:10625D000A3F7D232E2400807A51827A4183E019F2
:10626D00B301070BF0BEF00B78E60262F86CFF7E0F
:10627D00B301000A3F2E3400807A71827A6183F077
:10628D000BF0BEF00B78E8740B7AB301046CFF0AC7
:10629D003F7D232E2400807A51827A4183E019B309
:1062AD0001070BF0BEF00B78E680407EB301007E57
:1062BD007301017E6301027E5301037E4301047E5F
:1062CD003301057E2301067E100F7E00051279999C
:1062DD007CAB74027AB30104BEA0017804745580BE
:0B62ED000274AA7AB301077AA301082B
:0362F800DAF822AF
:0243E600CA3BD0
:1043E8007EB304B414BEB030400302466C7EA00312
:1043F800A49043FD7302448D02448F02450C02458C
:10440800440245860245BD02461802462402466C0F
:1044180002466C02466C02466C02466C02466C020E
:10442800466C02466C02466C02466C02466C0246BA
:104438006C02466C02466C02466C02466C02466C84
:1044480002466C02466C02466C02466C02466C02DE
:10445800466C02466C02466C02466C02466C02468A
:104468006C02466C02466C02466C02466C02466C54
:1044780002466C02466C02466C02466C02466C02AE
:10448800466C0244B980427EB301009000E0F07EA1
:10449800B301019000E1F07EB301039000E3F07EE8
:1044A800B301049000E4F07EB301069000E6F080CA
:1044B800187EB301009000E0F09000E1F09000E376
:1044C800F09000E4F09000E6F074077AB3010490ED
:1044D80000E0E07AB301079000E1E07AB30108E474
:1044E8007AB301099000E3E07AB3010A9000E4E0AE
:1044F8007AB3010BE47AB3010C9000E6E07AB301D9
:104508000D02466C7E7301000A776D667C4D7C5EF9
:104518007C6F6C777E3301010A732F317C4D7C5E92
:104528007C6F7E3301020A736D662F317EB30103FF
:104538007AB302007F1312828E0246677E730100EF
:104548000A776D667C4D7C5E7C6F6C777E330101EB
:104558000A732F317C4D7C5E7C6F7E3301020A73B7
:104568006D662F317F13128A167AB3020074017AAE
:10457800B301047E7302007A73010702466C7E73EE
:1045880001000A776D667C4D7C5E7C6F6C777E33AC
:1045980001010A732F317C4D7C5E7C6F7E330102F2
:1045A8000A736D662F317F131280EE7E340001127C
:1045B80084F20246677E7301000A776D667C4D7C43
:1045C8005E7C6F6C777E3301010A732F317C4D7CE2
:1045D8005E7C6F7E3301020A736D662F317EB301F4
:1045E800037AB302007F131281A974027AB301041B
:1045F800BE3455AA780E74557AB3010774AA7AB3F3
:10460800010880600A267A5301077A7301088054EA
:10461800127FD37E3400011284F280437E7301003E
:104628000A776D667C4D7C5E7C6F6C777E3301010A
:104638000A732F317C4D7C5E7C6F7E3301020A73D6
:104648006D662F316D337E53010319530E010B3400
:10465800BE34020078F07F137E080E01127DAFE4AD
:044668007AB301041C
:03466C00DA3B2214
:02100000CA3BE9
:101002007EB304B414BEB03040030218B27EA00313
:10101200A4901017730210A70210CC0218B2021883
:10102200B20212AC02114A0211BE02143A02145F59
:101032000218B20214850215410218B20217AA025E
:1010420016A202122B02183902137102150A021893
:10105200B20218B20218B20218B20218B20218B2E0
:101062000218B20218B20218B20218B20218B20280
:1010720018B20218B20218B20218B20218B202185A
:10108200B20218B20218B20218B20218B20218B2B0
:101092000218B20218B20218B20218B20218B20250
:1010A20018B202110B74157AB301046CFF0A3F7D6A
:1010B200232E2403607A51827A4183E019B3010717
:1010C2000BF0BEF01578E60218B26CFF0A3F09B3C6
:1010D20001002E3403607A71827A6183F00BF0BED4
:1010E200F01578E874157AB301046CFF0A3F7D238A
:1010F2002E2403607A51827A4183E019B301070BEF
:10110200F0BEF01578E60218B26CFF7EB301000A59
:101112003F2E3403607A71827A6183F00BF0BEF065
:101122001578E874157AB301046CFF0A3F7D232E0B
:101132002403607A51827A4183E019B301070BF0EC
:10114200BEF01578E60218B2900117E04440F09024
:10115200011FE04440F0E4900374F0900374E04413
:1011620010F0900374E04EB30100F07EB301006012
:101172000DBEB0016808BEB0026803B40321E4905A
:10118200036EF090036EE054FDF0740390036FF071
:1011920074FF900370F090036EE04401F08005E468
:1011A20090036EF0900374E04420F074017AB3016E
:1011B20004900374E07AB301070218B2900117E0B9
:1011C2004440F090011FE04440F0E4900374F0903A
:1011D2000374E04EB30100F07EB30100600DBEB0B7
:1011E200016808BEB0026803B40321E490036EF004
:1011F20090036EE054FDF0740390036FF074FF905F
:101202000370F090036EE04401F08005E490036EF9
:10121200F0900374E04420F074017AB30104900367
:1012220074E07AB301070218B2127B62128256E4AA
:10123200900020F07EB30100900366F07EB30101BE
:10124200900045F074047E70021253C5740390003E
:1012520021F090036CE04401F0E4900030F0900043
:1012620043E054FEF0900360E054FEF074039000FB
:1012720042F074026C776C6612760274071288B9B7
:10128200E4900367F0128580128A02900020E04405
:1012920080F0438701001281E312892212714B12FE
:1012A20070A6E47AB301040218B2900049E0440443
:1012B200F07EA30105BEA00178087403900042F0FD
:1012C200800A4CAA78067402900042F0C2A8E49008
:1012D2000367F0900369F0900367E04EB30101F0F9
:1012E200900369E04EB30102F07EA30103BEA001A8
:1012F2007809900367E04440F0800B4CAA7807908D
:101302000367E054BFF07EA30104BEA001780990F8
:101312000367E04480F0800B4CAA7807900367E0F3
:10132200547FF07EA30100BEA0027810900367E014
:1013320054CFF0900367E04420F08013BEA0017800
:101342000E900367E054CFF0900367E04410F0750D
:10135200B70075B80043B701D2B8C288D2A87401E9
:101362007AB30104900368E07AB301070218B2125B
:101372008256127B62900049E04404F074039000AC
:1013820042F0C2A8E4900367F0900369F09003670B
:10139200E04EB30101F0900369E04EB30102F07E2A
:1013A200A30100BEA0027810900367E054CFF09032
:1013B2000367E04420F08013BEA001780E9003671B
:1013C200E054CFF0900367E04410F0E4900020F086
:1013D2007EB30103900366F07EB30104900045F0F2
:1013E20074047E70021253C57403900021F09003BE
:1013F2006CE04401F0E4900030F0900043E054FED1
:10140200F0900360E054FEF074026C776C66127622
:101412000274071288B9128A02900020E04480F018
:10142200438701001281E312892212714B1270A6C6
:10143200E47AB301040218B2E4900360F07E73010F
:10144200000A573E547CAB900360E04CBAF0900324
:1014520060E04401F0E47AB301040218B27401902E
:10146200036CF07E7301000A573E547CAB90036C10
:10147200E04CBAF090036CE054FEF0E47AB301045D
:101482000218B2900049E04440F0900049E04EB3A7
:101492000102F0E490036EF090036EE054FDF07EE2
:1014A200B3010090036FF07EB30101900370F090DE
:1014B200036EE04480F0D2E974207AB301046CFF39
:1014C200E47AB300FB90036EE04401F07EB300FBCC
:1014D20060FA9003717EEBA07E7002AC7F19A301CB
:1014E200079003727EEBA07E7002AC7F19A3010805
:1014F20090036EE054FEF07E3400011284F20BF091
:10150200BEF01078BB0218B2740F7E148A347E04C7
:1015120000FF1288297E3400011284F274157E14B1
:101522008A657E0400FF1288297411128490741156
:101532007E08045E1287F7E47AB301040218B290BF
:101542000049E04450F0900049E04EB30102F090AF
:101552000105E0547FF090010DE0547FF0900117F7
:10156200E04480F090011FE04480F0E490036EF0CC
:1015720090036EE04402F07EB3010090036FF07EB0
:10158200B30101900370F0E4900374F0900374E0EF
:101592004420F0900374E0440CF0900374E0441093
:1015A200F090036EE04480F0D2E9740F7E148A3426
:1015B2007E0400FF1288297E640032E47AB300FBC5
:1015C20090036EE04401F07EB300FB60FA90037179
:1015D200E07AB30200900372E07AB3020190036EE4
:1015E200E054FEF07E34000A1284F2BE67020078F4
:1015F2000B0BE0900122E06440F08038BE670200ED
:101602005017900126E054FDF0900126E04401F0CD
:10161200900122E06410F0801BBE67020028159042
:101622000126E054FEF0900126E04402F0900122EF
:10163200E06420F0BEE0147834900122E06480F08F
:101642006CEE900126E04401F0900126E04402F0A5
:1016520074157E148A657E0400FF128829741112A3
:10166200849074117E08045E1287F70B649000491F
:10167200E04408F0745A9000C0F0BE6407D038030A
:101682000215BD90036EE054FEF0900126E0440185
:10169200F0900126E04402F0E47AB301040218B2A9
:1016A200900049E04450F0900049E04EB30102F04E
:1016B2007EA30103BEA00B781C900102E054FDF052
:1016C20090010AE054FDF0900114E04402F0900110
:1016D2001CE04402F0BEA00C781C900105E0547F8F
:1016E200F090010DE0547FF0900117E04480F090FB
:1016F200011FE04480F0BEA00D781C900105E0546B
:10170200DFF090010DE054DFF0900117E04420F08B
:1017120090011FE04420F07EB3010090036FF07E41
:10172200B30101900370F0E4900374F0900374E04D
:101732004420F0900374E04EB30103F0900374E090
:101742004410F0E490036EF090036EE04402F090D7
:10175200036EE04480F0D2E974207AB301046CFF96
:10176200E47AB300FB90036EE04401F07EB300FB29
:1017720060FA9003717EEBA07E7002AC7F19A30128
:10178200079003727EEBA07E7002AC7F19A3010862
:1017920090036EE054FEF07E3400011284F20BF0EE
:1017A200BEF01078BB0218B2900049E04440F090BD
:1017B2000049E04EB30102F0E490036EF090036E34
:1017C200E054FDF07EB3010090036FF07EB301019F
:1017D200900370F090036EE0547FF0C2E974207AB7
:1017E200B301046CFFE47AB300FB900128F090038C
:1017F2006EE04401F0900373E030E0F9740190016F
:1018020028F09003717EEBA07E7002AC7F19A301D9
:10181200079003727EEBA07E7002AC7F19A30108D1
:1018220090036EE054FEF07E3400011284F20BF05D
:10183200BEF01078B08079127B62128256E490007A
:1018420020F07EB30100900366F07EB301019000A8
:1018520045F074047E70021253C5E4900021F090AA
:10186200036CE04401F0E4900030F0900043E05457
:10187200FEF0900360E054FEF0E4900042F0740247
:101882006C776C6612760274071288B9E49003676B
:10189200F0128A02900020E04481F0438701001296
:1018A20081E312892212714B1270A6E47AB3010409
:0318B200DA3B22FC
:106CA3007EB304B41BB1682E24D26867242F680313
:106CB300026D5274057AB301046CAA0A4A7D342E1C
:106CC3003400007A71827A6183E019B401070BA062
:106CD300BEA00578E6226CAA0A4A09B401002E4434
:106CE30000007A91827A8183F00BA0BEA00578E838
:106CF30074057AB301046CAA0A4A7D342E34000069
:106D03007A71827A6183E019B401070BA0BEA005F2
:106D130078E6226CAA7EB301000A4A2E4400007A68
:106D230091827A8183F00BA0BEA00578E874057A7E
:106D3300B301046CAA0A4A7D342E3400007A7182AE
:0F6D43007A6183E019B401070BA0BEA00578E6C2
:016D5200221E
:02368E00CAF878
:103690007EB304B414BEB0304003023A227EA003CD
:1036A000A49036A57302373502375A0237D802374D
:1036B000EB0237FD023888023912023A22023997AA
:1036C0000239F1023A22023A22023A22023A220254
:1036D0003A22023A22023A22023A22023A22023ADA
:1036E00022023A22023A22023A22023A22023A22E2
:1036F000023A22023A22023A22023A22023A2202F2
:103700003A22023A22023A22023A22023A22023AA9
:1037100022023A22023A22023A22023A22023A22B1
:10372000023A22023A22023A22023A22023A2202C1
:103730003A2202379974207AB301046CFF0A3F7D64
:10374000232E2400607A51827A4183E019B3010765
:103750000BF0BEF02078E6023A226CFF0A3F09B374
:1037600001002E3400607A71827A6183F00BF0BE22
:10377000F02078E874207AB301046CFF0A3F7D23BF
:103780002E2400607A51827A4183E019B301070B3D
:10379000F0BEF02078E6023A226CFF7EB301000A08
:1037A0003F2E3400607A71827A6183F00BF0BEF0B4
:1037B0002078E874207AB301046CFF0A3F7D232E41
:1037C0002400607A51827A4183E019B301070BF03B
:1037D000BEF02078E6023A22127C337401126F594F
:1037E000127EF2E47AB30104023A22127BCDE41293
:1037F0006F59127EF2E47AB30104023A22127B621C
:10380000128256E4900020F07EB3010B900366F024
:103810007EB3010C900045F074047E70021253C513
:103820007403900021F090036CE04401F0E49000F8
:1038300030F0900043E054FEF0900360E054FEF05E
:103840007403900042F074026C776C661276027E0C
:10385000B3010DB40103127C337401126F59127E4F
:10386000F274071288B9128A02900020E04480F0B6
:10387000438701001281E312892212714B1270A654
:10388000E47AB30104023A22127B62128256E49077
:103890000020F07EB3010B900366F07EB3010C9024
:1038A0000045F074047E70021253C5740390002129
:1038B000F090036CE04401F0E4900030F09000439D
:1038C000E054FEF0900360E054FEF0740390004278
:1038D000F074026C776C661276027EB3010DB4014F
:1038E00003127BCDE4126F59127EF274071288B96D
:1038F000128A02900020E04480F043870100128188
:10390000E312892212714B1270A6E47AB301040209
:103910003A22128256127B62E4900060F0900067B7
:10392000F0900061F0900020F07EB30100900366FB
:10393000F07EB30101900045F074047E70021253D2
:10394000C57403900021F090036CE04401F0E49012
:103950000030F0900043E054FEF0900360E054FE2D
:10396000F07403900042F074026C776C6612760279
:1039700074071288B9128A02900020E04480F04354
:103980008701001281E312892212714B1270A6E4A2
:103990007AB30104023A22127BCDE4126F597EA35E
:1039A000010B4CAA7809900061E0547FF0800CBEB6
:1039B000A0017807900061E04480F07EB3010C9094
:1039C0000069F07EB3010D90006AF07EB3010E90A5
:1039D000006BF07EB3010F90006CF07EB30110908D
:1039E000006DF0900061E04401F0E47AB3010480DE
:1039F00031127BCD7401126F597EA3010B4CAA7852
:103A000009900060E054FDF0800CBEA001780790A2
:103A10000060E04402F0900060E04401F0E47AB31A
:023A200001049F
:033A2200DAF822AD
:106BF3007EB304B41BB1682E24D26867242F6803C4
:106C0300026CA2744D7AB301046CAA0A4A7D342E35
:106C13003401007A71827A6183E019B401070BA011
:106C2300BEA04D78E6226CAA0A4A09B401002E449C
:106C330001007A91827A8183F00BA0BEA04D78E89F
:106C4300744D7AB301046CAA0A4A7D342E340100D0
:106C53007A71827A6183E019B401070BA0BEA04D5B
:106C630078E6226CAA7EB301000A4A2E4401007A18
:106C730091827A8183F00BA0BEA04D78E8744D7A9F
:106C8300B301046CAA0A4A7D342E3401007A71825E
:0F6C93007A6183E019B401070BA0BEA04D78E62B
:016CA20022CF
:107710007EB304B424E168030277937EB301007E54
:107720007301013E707E6301021276027EB3010393
:10773000900044F07EB30104900045F07EB3010553
:10774000900046F07EB3010690004AF07EB3010738
:1077500090004BF0127B627EB30108B4011B7404ED
:10776000900143F0900118E054EFF0900120E044C4
:1077700010F0900138E054EFF07401900360F0E4F1
:1077800090036CF0900049E04408F0745A9000C0F7
:03779000F080F195
:0177930022D3
:10839900E4900116F090011EF090011EE04460F097
:1083A900900136E04460F0E4900104F0900104E0AB
:1083B9004480F0900116E04480F0900126E0547F5B
:0283C900F022A0
:1087DD00E4900267F0900260F0900260E04480F057
:0A87ED00E4900261F0900266F022B1
:10885A00900260E04401F0900264E05401B401F730
:08886A00900264E054FEF022CC
:10887200900260E04404F0900264E05401B401F715
:08888200900264E054FEF022B4
:10888A00900260E04402F0900264E05401B401F7FF
:08889A00900264E054FEF0229C
:10899100900264E05401B401F7900264E054FEF0E7
:0189A10022B3
:1087C200800D900049E04408F0745A9000C0F07E99
:0B87D200B300FD60EDE47AB300FD226F
:107001007CAB1287DD12885A9002637AEBA0128959
:1070110091900261E05402B4020280510A5690023A
:1070210063F0128991900261E05402B40202803D42
:107031007CB7900263F08021900261E05402B402B7
:1070410002802A900261E05402BEB002680B7F20E8
:107051000B147E2BB0900263F01289917D321B24B8
:107061004D3378D4900261E05402B4020512887263
:10707100C322900261E05402BEB00268031288721A
:1070810012885A74A0900263F0128991900261E013
:107091005402B4020E128872900261E05402BEB032
:0570A1000268DDD322AE
:0A5DEB00CA3B7D717D627AB302CCE1
:105DF5000A267A5302CD7A7302CE1287DD12885AAB
:105E0500E47E3402CC7E2400017E3001127EA41291
:105E15008991900261E05402B402028003025E2877
:105E2500025EA4E47E3402CD7E2400017E300112A0
:105E35007EA4128991900261E05402B402028003AB
:105E4500025E4B025EA4E47E3402CE7E2400017E17
:105E55003001127EA4025E8B900261E05402B4020E
:105E6500028003025E6E025EA4900261E05402BEEF
:105E7500B0027803025E89E47D367E2400017E301F
:105E850001127EA40B641289917D371B744D337802
:105E9500C7900261E05402B402028003025EAB12B5
:105EA5008872C3025EEE900261E05402BEB00278D1
:105EB50003025EBC12887212885AE47E3402CC7EDC
:105EC5002400017E3001127EA4128991900261E0C6
:105ED5005402B402028003025EED128872900261E0
:095EE500E05402BEB00268CFD304
:035EEE00DA3B227A
:105EF1001287DDD2EB900264E04402F0900267E089
:105F01004480F0900261E0547FF074AA900263F043
:105F11001287C27EB304CB20E703025F20D3229015
:105F21000260E04401F01287C274A0900263F01293
:105F310087C2900261E05402B402028003025F440E
:105F4100025FB7900261E05402BEB0027803025FC3
:105F510057E4900263F01287C2900261E05402B4E8
:105F610002028003025F6B025FB7900261E054029C
:105F7100BEB0027803025F7EE4900263F01287C232
:105F8100900261E05402B402028003025F92025F58
:105F9100B7900261E05402BEB0027803025FA674BA
:105FA10055900263F01287C2900261E05402B4027C
:105FB100028003025FBC128872C322900261E05426
:105FC10002BEB0027803025FCD12887212885A7441
:105FD100A0900263F01287C2900261E05402B40201
:105FE100028003025FF5128872900261E05402BEE2
:065FF100B00268D8C322D3
:1069A4001287DDD2EB900264E04402F0900267E0CB
:1069B4004480F0900261E0547FF0900260E0440172
:1069C400F01287C274A0900263F01287C290026131
:1069D400E05402B40203026A45900261E05402BE2C
:1069E400B0026805E4900263F01287C2900261E08D
:1069F4005402B40202804A900261E05402BEB00222
:106A04006805E4900263F01287C2900261E05402C8
:106A1400B40202802C900261E05402BEB002680607
:106A24007455900263F074AA900263F01287C27ED8
:106A3400B304CB30E702D322900261E05402B402E3
:106A440005128872C322900261E05402BEB002684B
:106A54000312887212885A74A0900263F01289910A
:106A6400900261E05402B4020E128872900261E056
:096A74005402BEB00268DDC32229
:10745D00D2EBE4900267F0900264E04402F09002F7
:10746D0067E04480F0E4900260F0900260E04480B8
:10747D00F0E4900261F0900266F0900260E0440149
:10748D00F01287C274A0900263F01287C29002605E
:10749D00E04401F01287C27EB3010820E2030274BA
:1074AD00B0D322900261E05402B402028003027450
:1074BD00C3128872C322900261E05402BEB00278FA
:1074CD00030274D6E4900263F01287C2900260E06A
:1074DD004401F01287C27EB3010870030274EED32B
:0374ED0022C32295
:107C9900D2EC900264E04402F0900267E04480F084
:107CA900E4900260F0900260E04480F0E4900261A8
:107CB900F0900266F0900260E04401F01287C290F1
:107CC9000260E04401F0900260E04402F09002603A
:107CD900E04404F0900260E04408F0900260E0445F
:107CE90010F01287C27EB3010830E102D322C32209
:10801B00D2EC900264E04402F0900267E04480F0FE
:10802B00E4900260F0900260E04480F0E490026122
:10803B00F0900266F0900260E04402F0900260E083
:10804B004408F0900260E04410F01287C27EB30146
:08805B000830E002D322C32229
:106B41007CAB1287DD12885A9002637AEBA012891E
:106B510091900261E05402B40202805E900261E011
:106B61005402BEB00268427E5702CCBE54000408F3
:106B7100090A56900263F01289917CB7900263F082
:106B81001289918024900261E05402B40202802AA9
:106B9100900261E05402BEB002680B7F200B147EAC
:106BA1002BB0900263F01289917D321B244D337812
:106BB100D4900261E05402B40205128872C322909B
:106BC1000261E05402BEB002680312887212885A50
:106BD10074A0900263F0128991900261E05402B4B2
:106BE100020E128872900261E05402BEB00268DDAA
:026BF100D322AD
:1064EB007CAB1287DD12885A9002637AEBA012897B
:1064FB0091900261E05402B40202800302650D0226
