:030000000203CF29
:0303CF0075840131
:0403D2007EF806FFAC
:0303FF000204B73E
:0205750017016C
:0205770017016A
:02057900171059
:05056E000001001F0068
:06043500CA3B7D730BFDC4
:10043B006D66801F12054A6D33793FFFFF00120571
:10044B004A693FFFFF0B34793FFFFFBE3402A878A8
:07045B00EC0B64BD6740DDFE
:050462001BFDDA3B2246
:0100070022D6
:0100060022D7
:0C0558009002B0F09002A1E030E0F92227
:10011A007402900043F07440900044F0E490004070
:10012A00F0900041F0900047F07483900048F0741A
:10013A009C900049F07407900042F012054A740737
:10014A009000C1F07401900360F090036CE04401E8
:10015A00F0D2AF75B70075B80043B701D2B8D288EC
:10016A00D2A87403900045F0E4900139F090013967
:10017A00E04404F074FF90013EF0E4900101F09035
:10018A000109F0900113E0547FF090011BE0547FC5
:10019A00F0E4900141F0D2AAD28A90013EE0547F65
:0201AA00F02241
:0E054A00900049E04408F0745A9000C0F0227E
:10022200900049E04410F074FF900122F0740190B4
:100232000100F0E4900102F0900103F0900104F05B
:10024200900105F0900106F0900107F090011AF07C
:1002520090011CF090011DF090011EF090011FF022
:10026200900120F0900121F074FF900112F09001B2
:1002720014F0900115F0900116F0900117F0900122
:0702820018F0900119F022B1
:0F052C0074207E70011204677E340014020435BF
:0F053B0074107E70011204677E340014020435C0
:10031A007E3403E86D22000B24BE24006478F71BA8
:10032A003478F17EB3001F701274106C7712046770
:10033A0074206C771204677401801174107E700146
:10034A0012046774207E7001120467E47AB3001FF6
:01035A002280
:10050700120222E4900020F0900020E04480F043A3
:040517008701002236
:10040200E4900089F0900080F0900081F0900084E8
:10041200F0900085F074FF900086F0900087F074F1
:1004220002900088F06D337A37001D90008AE04414
:0304320001F022B4
:08039700CA3B7AB300187F3065
:10039F00E4801C7E7300190A372D377D267E1BB033
:1003AF001205587E3400051204357EB30019047A05
:0D03BF00B300197E730018BE73001938D604
:0303CC00DA3B22F7
:1001AC00900117E054EFF090011FE04410F0900123
:1001BC0037E0F0900117E054F7F090011FE044088D
:1001CC00F0900137E0F0900117E054FBF090011F24
:1001DC00E04404F0900137E0F0900117E054FDF09A
:1001EC0090011FE04402F0900137E0F0741090028F
:1001FC00A4F09002A8F09002A5F09002A9F0E4906F
:10020C0002B4F074469002B8F074039002B5F07426
:06021C00409002B9F0223F
:1004D60074FF900122F090011AE0540FF090010091
:0C04E600E04430F0900112E044F0F022FD
:100467007C6BA5BE2010900122E0A5BF00054420AB
:10047700F0800354DFF0A5BE100F900122E0A5BF66
:0A04870000044410F02254EFF022AC
:10051B00E47AB3001C7464900367F0E4900369F011
:01052B0022AD
:100289007E1405757E0400FF0B0A307A37001012C0
:10029900054A1201AC1204D67E37001D0B347A3799
:1002A900001D7EB3001BB4010674107AB300117EE1
:1002B90037001DBE340384780F7E080010740212C3
:0802C90003976D337A37001D25
:0102D100220A
:0A05640012054A74017AB3001C224C
:1002D2007E1405777E0400FF0B0A307A3700147E05
:1002E2001405797E0400FF0B0A307A3700161205D6
:1002F2004A1201AC1204D67EB3001BB4010BE47A9D
:10030200B3001B7E080014800A74017AB3001B7EBE
:080312000800167402020397B3
:1004F20012011A1201AC1204D612040212051BE4F4
:050502007AB3001B228A
:1004B7001204F212054A7EB3001BB4010312052C85
:0F04C7007EB3001CB4010312053B12050780E44D
:03003B000204912B
:08049100CAB8C0D1C083C082CB
:10049900E59130E00D900022E0540F6805E49000EA
:0504A90022F075910036
:0904AE00D082D083D0D1DAB8323B
:0300030002007682
:10007600CA7BCA6BCA5BCA4BCA2BC0D175D108C032
:10008600D0C083C082900368E020E10302009C9008
:100096000368E054FDF0900368E020E0030200B03E
:1000A600120564900368E054FEF0900089E020E2B7
:1000B600030200CB900088E020E2030200CB900010
:1000C60089E054FBF0900089E020E1030200E9900A
:1000D6000088E020E1030200E9120289900089E02D
:1000E60054FDF0900089E020E003020104900088AE
:1000F600E020E003020104900089E054FEF05388FA
:10010600FDD082D083D0D0D0D1DA2BDA4BDA5BDACD
:040116006BDA7B32F3
:03000B00020008E8
:0100080032C5
:0300130002035B8A
:10035B00CA7BCA6BCA5BCA4BCA2BC0D175D108C04A
:10036B00D0C083C082900141E030E70A1202D290E4
:10037B000141E0547FF05388F7D082D083D0D0D0A6
:0C038B00D1DA2BDA4BDA5BDA6BDA7B326A
:03001B00020009D7
:0100090032C4
:03002300020019BF
:0100190032B4
:03002B0002000AC6
:01000A0032C3
:03003300020018B0
:0100180032B5
:0300430002000EAA
:01000E0032BF
:03004B0002000FA1
:01000F0032BE
:0300530002001098
:0100100032BD
:03005B000200118F
:0100110032BC
:0300630002001286
:0100120032BB
:03006B000200167A
:0100160032B7
:0300730002001771
:0100170032B6
:1003D6007E0400FF7E14056E0B0A405D44681A69B0
:1003E6002000020B0E0B44800A7E0BB07A29B00B5C
:0903F600240B0C1B4478F280DF9B
:02057300000086
:00000001FF
