:030000000204F403
:0304F4007584010B
:0404F7007EF806FF86
:030524000205A924
:02067000180070
:0206720018006E
:0206740018105C
:050669000001001F006C
:06052700CA3B7D730BFDD1
:10052D006D66801F1206456D33793FFFFF00120681
:10053D0045693FFFFF0B34793FFFFFBE3402A878BA
:07054D00EC0B64BD6740DD0B
:050554001BFDDA3B2253
:0100070022D6
:0100060022D7
:0C0653009002B0F09002A1E030E0F9222B
:100207007402900043F07440900044F0E490004082
:10021700F0900041F0900047F07483900048F0742C
:100227009C900049F07407900042F012064574074D
:100237009000C1F07401900360F090036CE04401FA
:10024700F0D2AF75B70075B80043B701D2B8D288FE
:10025700D2A87403900045F0E4900139F090013979
:10026700E04404F074FF90013EF0E4900101F09047
:100277000109F0900113E0547FF090011BE0547FD7
:10028700F0E4900141F0D2AAD28A90013EE0547F77
:02029700F02253
:0E064500900049E04408F0745A9000C0F02282
:10030F00900049E04410F074FF900122F0740190C6
:10031F000100F0E4900102F0900103F0900104F06D
:10032F00900105F0900106F0900107F090011AF08E
:10033F0090011CF090011DF090011EF090011FF034
:10034F00900120F0900121F074FF900112F09001C4
:10035F0014F0900115F0900116F0900117F0900134
:07036F0018F0900119F022C3
:0F06270074207E70011205597E340014020527DD
:0F06360074107E70011205597E340014020527DE
:100407007E3403E86D22000B24BE24006478F71BBA
:100417003478F17EB3001F701274106C771205598F
:1004270074206C771205597401801174107E700165
:1004370012055974207E7001120559E47AB3001F22
:010447002292
:1006020012030FE4900020F0900020E04480F043B9
:04061200870100223A
:1004BC00E4900089F0900080F0900081F09000842E
:1004CC00F0900085F074FF900086F0900087F07437
:1004DC0002900088F06D337A37001DE4900089F0AB
:0804EC0090008AE04401F022B7
:08048400CA3B7AB300187F3077
:10048C00E4801C7E7300190A372D377D267E1BB045
:10049C001206537E3400051205277EB30019047A28
:0D04AC00B300197E730018BE73001938D616
:0304B900DA3B2209
:10029900900117E054EFF090011FE04410F0900135
:1002A90037E0F0900117E054F7F090011FE044089F
:1002B900F0900137E0F0900117E054FBF090011F36
:1002C900E04404F0900137E0F0900117E054FDF0AC
:1002D90090011FE04402F0900137E0F074109002A1
:1002E900A4F09002A8F09002A5F09002A9F0E49081
:1002F90002B4F074469002B8F074039002B5F07439
:06030900409002B9F02251
:1005E60074FF900122F090011AE0540FF090010080
:0C05F600E04430F0900112E044F0F022EC
:100559007C6BA5BE2010900122E0A5BF00054420B8
:10056900F0800354DFF0A5BE100F900122E0A5BF73
:0A05790000044410F02254EFF022B9
:10061600E47AB3001C7464900367F0E4900369F015
:0106260022B1
:100376007E1406707E0400FF0B0A307A37001012D6
:1003860006451202991205E67E37001D0B347A37B0
:10039600001D7EB3001BB4010674107AB300117EF3
:1003A60037001DBE340384780F7E080010740212D5
:0803B60004846D337A37001D49
:0103BE00221C
:0A065F0012064574017AB3001C2254
:1003BF007E1406727E0400FF0B0A307A3700147E1B
:1003CF001406747E0400FF0B0A307A3700161206EB
:1003DF00451202991205E67EB3001BB4010BE47AB5
:1003EF00B3001B7E080014800A74017AB3001B7ED1
:0803FF000800167402020484D8
:1005C8001202071202991205E61204BC120616124C
:0E05D8000007E47AB3001B74017AB3001A2204
:1005A9001205C81206457EB3001BB40103120627C3
:0F05B9007EB3001CB4010312063612060280E462
:03003B0002058338
:08058300CAB8C0D1C083C082D8
:10058B00E59130E00D900022E0540F6805E49000F7
:05059B0022F075910043
:0905A000D082D083D0D1DAB83248
:0300030002007682
:10007600CA7BCA6BCA5BCA4BCA2BC0D175D108C032
:10008600D0C083C082900368E020E10302009C9008
:100096000368E054FDF0900368E020E0030200B03E
:1000A60012065F900368E054FEF0900089E020E2BB
:1000B600030200CB900088E020E2030200CB900010
:1000C60089E054FBF0900089E020E1030200E9900A
:1000D6000088E020E1030200E9120376900089E03F
:1000E60054FDF0900089E020E003020104900088AE
:1000F600E020E003020104900089E054FEF0900045
:10010600A4E070030201F19000A3E070030201F184
:100116009000A4E020E4030201319000A3E020E473
:10012600030201319000A4E054EFF09000A4E02017
:10013600E50302014C9000A3E020E50302014C9088
:1001460000A4E054DFF09000A4E020E60302016A78
:100156009000A3E020E60302016A1200069000A4C4
:10016600E054BFF09000A4E020E703020185900070
:10017600A3E020E7030201859000A4E0547FF090FD
:1001860000A4E020E3030201A09000A3E020E30323
:100196000201A09000A4E054F7F09000A4E020E251
:1001A600030201BB9000A3E020E2030201BB900022
:1001B600A4E054FBF09000A4E020E1030201D690F5
:1001C60000A3E020E1030201D69000A4E054FDF074
:1001D6009000A4E020E0030201F19000A3E020E0FB
:1001E600030201F19000A4E054FEF05388FDD08292
:1001F600D083D0D0D0D1DA2BDA4BDA5BDA6BDA7B6C
:0102060032C5
:03000B00020008E8
:0100080032C5
:030013000204489C
:10044800CA7BCA6BCA5BCA4BCA2BC0D175D108C05C
:10045800D0C083C082900141E030E70A1203BF9008
:100468000141E0547FF05388F7D082D083D0D0D0B8
:0C047800D1DA2BDA4BDA5BDA6BDA7B327C
:03001B00020009D7
:0100090032C4
:03002300020019BF
:0100190032B4
:03002B0002000AC6
:01000A0032C3
:03003300020018B0
:0100180032B5
:0300430002000EAA
:01000E0032BF
:03004B0002000FA1
:01000F0032BE
:0300530002001098
:0100100032BD
:03005B000200118F
:0100110032BC
:0300630002001286
:0100120032BB
:03006B000200167A
:0100160032B7
:0300730002001771
:0100170032B6
:1004FB007E0400FF7E1406690B0A405D44681A698E
:10050B002000020B0E0B44800A7E0BB07A29B00B35
:09051B00240B0C1B4478F280DF74
:02066E0000008A
:00000001FF
